{
  "_format": "hh-sol-artifact-1",
  "contractName": "TodoList",
  "sourceName": "contracts/TodoList.sol",
  "abi": [
    {
      "inputs": [],
      "stateMutability": "nonpayable",
      "type": "constructor"
    },
    {
      "anonymous": false,
      "inputs": [],
      "name": "TodoCompleted",
      "type": "event"
    },
    {
      "anonymous": false,
      "inputs": [
        {
          "indexed": false,
          "internalType": "uint256",
          "name": "todoId",
          "type": "uint256"
        }
      ],
      "name": "TodoCreated",
      "type": "event"
    },
    {
      "anonymous": false,
      "inputs": [],
      "name": "TodoExpired",
      "type": "event"
    },
    {
      "inputs": [
        {
          "internalType": "uint256",
          "name": "todoId",
          "type": "uint256"
        }
      ],
      "name": "completeTodo",
      "outputs": [],
      "stateMutability": "payable",
      "type": "function"
    },
    {
      "inputs": [
        {
          "internalType": "string",
          "name": "title",
          "type": "string"
        }
      ],
      "name": "createTodo",
      "outputs": [],
      "stateMutability": "payable",
      "type": "function"
    },
    {
      "inputs": [],
      "name": "fetchUnfinishedTodos",
      "outputs": [
        {
          "components": [
            {
              "internalType": "uint256",
              "name": "todoId",
              "type": "uint256"
            },
            {
              "internalType": "string",
              "name": "title",
              "type": "string"
            },
            {
              "internalType": "bool",
              "name": "finished",
              "type": "bool"
            },
            {
              "internalType": "address payable",
              "name": "creator",
              "type": "address"
            },
            {
              "internalType": "uint256",
              "name": "amount",
              "type": "uint256"
            }
          ],
          "internalType": "struct TodoList.TodoItem[]",
          "name": "",
          "type": "tuple[]"
        }
      ],
      "stateMutability": "view",
      "type": "function"
    },
    {
      "inputs": [
        {
          "internalType": "uint256",
          "name": "id",
          "type": "uint256"
        }
      ],
      "name": "findTodo",
      "outputs": [
        {
          "components": [
            {
              "internalType": "uint256",
              "name": "todoId",
              "type": "uint256"
            },
            {
              "internalType": "string",
              "name": "title",
              "type": "string"
            },
            {
              "internalType": "bool",
              "name": "finished",
              "type": "bool"
            },
            {
              "internalType": "address payable",
              "name": "creator",
              "type": "address"
            },
            {
              "internalType": "uint256",
              "name": "amount",
              "type": "uint256"
            }
          ],
          "internalType": "struct TodoList.TodoItem",
          "name": "",
          "type": "tuple"
        }
      ],
      "stateMutability": "view",
      "type": "function"
    }
  ],
  "bytecode": "0x608060405234801561001057600080fd5b506001600081905550611530806100286000396000f3fe60806040526004361061003f5760003560e01c806320fe2144146100445780634a78950f14610060578063de941a541461009d578063e34f1221146100c8575b600080fd5b61005e60048036038101906100599190610db8565b6100e4565b005b34801561006c57600080fd5b5061008760048036038101906100829190610db8565b610352565b604051610094919061111f565b60405180910390f35b3480156100a957600080fd5b506100b261049c565b6040516100bf919061106d565b60405180910390f35b6100e260048036038101906100dd9190610d77565b610951565b005b60006100f06001610b27565b905060005b81811161034d57826003600083815260200190815260200160002060000154141561033a576003600082815260200190815260200160002060020160019054906101000a900473ffffffffffffffffffffffffffffffffffffffff1673ffffffffffffffffffffffffffffffffffffffff163373ffffffffffffffffffffffffffffffffffffffff16146101be576040517f08c379a00000000000000000000000000000000000000000000000000000000081526004016101b5906110df565b60405180910390fd5b600015156003600083815260200190815260200160002060020160009054906101000a900460ff16151514610228576040517f08c379a000000000000000000000000000000000000000000000000000000000815260040161021f906110bf565b60405180910390fd5b60016003600083815260200190815260200160002060020160006101000a81548160ff0219169083151502179055503373ffffffffffffffffffffffffffffffffffffffff166108fc60036000848152602001908152602001600020600301549081150290604051600060405180830381858888f193505050501580156102b3573d6000803e3d6000fd5b506103096040518060400160405280600e81526020017f256920616d6f756e742073656e740000000000000000000000000000000000008152506003600084815260200190815260200160002060030154610b35565b7f11504f6ba54ece9e7c2dbdeb1667ac0a15b89348a89611bf5a64c38a869ee7c860405160405180910390a161034d565b80806103459061135b565b9150506100f5565b505050565b61035a610c10565b6000600360008481526020019081526020016000206040518060a001604052908160008201548152602001600182018054610394906112f8565b80601f01602080910402602001604051908101604052809291908181526020018280546103c0906112f8565b801561040d5780601f106103e25761010080835404028352916020019161040d565b820191906000526020600020905b8154815290600101906020018083116103f057829003601f168201915b505050505081526020016002820160009054906101000a900460ff161515151581526020016002820160019054906101000a900473ffffffffffffffffffffffffffffffffffffffff1673ffffffffffffffffffffffffffffffffffffffff1673ffffffffffffffffffffffffffffffffffffffff168152602001600382015481525050905080915050919050565b606060006104aa6001610b27565b905060008060005b838111610579573373ffffffffffffffffffffffffffffffffffffffff166003600083815260200190815260200160002060020160019054906101000a900473ffffffffffffffffffffffffffffffffffffffff1673ffffffffffffffffffffffffffffffffffffffff161480156105515750600015156003600083815260200190815260200160002060020160009054906101000a900460ff161515145b15610566576001836105639190611218565b92505b80806105719061135b565b9150506104b2565b5060008267ffffffffffffffff8111156105bc577f4e487b7100000000000000000000000000000000000000000000000000000000600052604160045260246000fd5b6040519080825280602002602001820160405280156105f557816020015b6105e2610c10565b8152602001906001900390816105da5790505b50905060005b848111610946576000600360008381526020019081526020016000206040518060a00160405290816000820154815260200160018201805461063c906112f8565b80601f0160208091040260200160405190810160405280929190818152602001828054610668906112f8565b80156106b55780601f1061068a576101008083540402835291602001916106b5565b820191906000526020600020905b81548152906001019060200180831161069857829003601f168201915b505050505081526020016002820160009054906101000a900460ff161515151581526020016002820160019054906101000a900473ffffffffffffffffffffffffffffffffffffffff1673ffffffffffffffffffffffffffffffffffffffff1673ffffffffffffffffffffffffffffffffffffffff16815260200160038201548152505090503373ffffffffffffffffffffffffffffffffffffffff16816060015173ffffffffffffffffffffffffffffffffffffffff1614801561078257506000151581604001511515145b15610932576000600360008481526020019081526020016000206000015490506000600360008381526020019081526020016000206040518060a0016040529081600082015481526020016001820180546107dc906112f8565b80601f0160208091040260200160405190810160405280929190818152602001828054610808906112f8565b80156108555780601f1061082a57610100808354040283529160200191610855565b820191906000526020600020905b81548152906001019060200180831161083857829003601f168201915b505050505081526020016002820160009054906101000a900460ff161515151581526020016002820160019054906101000a900473ffffffffffffffffffffffffffffffffffffffff1673ffffffffffffffffffffffffffffffffffffffff1673ffffffffffffffffffffffffffffffffffffffff168152602001600382015481525050905080858781518110610915577f4e487b7100000000000000000000000000000000000000000000000000000000600052603260045260246000fd5b602002602001018190525060018661092d9190611218565b955050505b50808061093e9061135b565b9150506105fb565b508094505050505090565b60026000541415610997576040517f08c379a000000000000000000000000000000000000000000000000000000000815260040161098e906110ff565b60405180910390fd5b600260008190555060006109ab6001610b27565b90506040518060a001604052808281526020018381526020016000151581526020013373ffffffffffffffffffffffffffffffffffffffff1681526020013481525060036000838152602001908152602001600020600082015181600001556020820151816001019080519060200190610a26929190610c57565b5060408201518160020160006101000a81548160ff02191690831515021790555060608201518160020160016101000a81548173ffffffffffffffffffffffffffffffffffffffff021916908373ffffffffffffffffffffffffffffffffffffffff16021790555060808201518160030155905050610ada6040518060400160405280600a81526020017f6974656d2069642025730000000000000000000000000000000000000000000081525082610b35565b610ae46001610bd1565b7f969587c10fd1c8e896dbd62c20606e6b46069c3bb75f2a19faed07bf2f93686881604051610b139190611141565b60405180910390a150600160008190555050565b600081600001549050919050565b610bcd8282604051602401610b4b92919061108f565b6040516020818303038152906040527f9710a9d0000000000000000000000000000000000000000000000000000000007bffffffffffffffffffffffffffffffffffffffffffffffffffffffff19166020820180517bffffffffffffffffffffffffffffffffffffffffffffffffffffffff8381831617835250505050610be7565b5050565b6001816000016000828254019250508190555050565b60008151905060006a636f6e736f6c652e6c6f679050602083016000808483855afa5050505050565b6040518060a001604052806000815260200160608152602001600015158152602001600073ffffffffffffffffffffffffffffffffffffffff168152602001600081525090565b828054610c63906112f8565b90600052602060002090601f016020900481019282610c855760008555610ccc565b82601f10610c9e57805160ff1916838001178555610ccc565b82800160010185558215610ccc579182015b82811115610ccb578251825591602001919060010190610cb0565b5b509050610cd99190610cdd565b5090565b5b80821115610cf6576000816000905550600101610cde565b5090565b6000610d0d610d0884611181565b61115c565b905082815260208101848484011115610d2557600080fd5b610d308482856112b6565b509392505050565b600082601f830112610d4957600080fd5b8135610d59848260208601610cfa565b91505092915050565b600081359050610d71816114e3565b92915050565b600060208284031215610d8957600080fd5b600082013567ffffffffffffffff811115610da357600080fd5b610daf84828501610d38565b91505092915050565b600060208284031215610dca57600080fd5b6000610dd884828501610d62565b91505092915050565b6000610ded8383610f63565b905092915050565b610dfe8161126e565b82525050565b6000610e0f826111c2565b610e1981856111e5565b935083602082028501610e2b856111b2565b8060005b85811015610e675784840389528151610e488582610de1565b9450610e53836111d8565b925060208a01995050600181019050610e2f565b50829750879550505050505092915050565b610e8281611280565b82525050565b6000610e93826111cd565b610e9d81856111f6565b9350610ead8185602086016112c5565b610eb681611431565b840191505092915050565b6000610ecc826111cd565b610ed68185611207565b9350610ee68185602086016112c5565b610eef81611431565b840191505092915050565b6000610f07602183611207565b9150610f1282611442565b604082019050919050565b6000610f2a601583611207565b9150610f3582611491565b602082019050919050565b6000610f4d601f83611207565b9150610f58826114ba565b602082019050919050565b600060a083016000830151610f7b600086018261104f565b5060208301518482036020860152610f938282610e88565b9150506040830151610fa86040860182610e79565b506060830151610fbb6060860182610df5565b506080830151610fce608086018261104f565b508091505092915050565b600060a083016000830151610ff1600086018261104f565b50602083015184820360208601526110098282610e88565b915050604083015161101e6040860182610e79565b5060608301516110316060860182610df5565b506080830151611044608086018261104f565b508091505092915050565b611058816112ac565b82525050565b611067816112ac565b82525050565b600060208201905081810360008301526110878184610e04565b905092915050565b600060408201905081810360008301526110a98185610ec1565b90506110b8602083018461105e565b9392505050565b600060208201905081810360008301526110d881610efa565b9050919050565b600060208201905081810360008301526110f881610f1d565b9050919050565b6000602082019050818103600083015261111881610f40565b9050919050565b600060208201905081810360008301526111398184610fd9565b905092915050565b6000602082019050611156600083018461105e565b92915050565b6000611166611177565b9050611172828261132a565b919050565b6000604051905090565b600067ffffffffffffffff82111561119c5761119b611402565b5b6111a582611431565b9050602081019050919050565b6000819050602082019050919050565b600081519050919050565b600081519050919050565b6000602082019050919050565b600082825260208201905092915050565b600082825260208201905092915050565b600082825260208201905092915050565b6000611223826112ac565b915061122e836112ac565b9250827fffffffffffffffffffffffffffffffffffffffffffffffffffffffffffffffff03821115611263576112626113a4565b5b828201905092915050565b60006112798261128c565b9050919050565b60008115159050919050565b600073ffffffffffffffffffffffffffffffffffffffff82169050919050565b6000819050919050565b82818337600083830152505050565b60005b838110156112e35780820151818401526020810190506112c8565b838111156112f2576000848401525b50505050565b6000600282049050600182168061131057607f821691505b60208210811415611324576113236113d3565b5b50919050565b61133382611431565b810181811067ffffffffffffffff8211171561135257611351611402565b5b80604052505050565b6000611366826112ac565b91507fffffffffffffffffffffffffffffffffffffffffffffffffffffffffffffffff821415611399576113986113a4565b5b600182019050919050565b7f4e487b7100000000000000000000000000000000000000000000000000000000600052601160045260246000fd5b7f4e487b7100000000000000000000000000000000000000000000000000000000600052602260045260246000fd5b7f4e487b7100000000000000000000000000000000000000000000000000000000600052604160045260246000fd5b6000601f19601f8301169050919050565b7f746f646f20697320616c7265616479206d61726b65642061732066696e73686560008201527f6400000000000000000000000000000000000000000000000000000000000000602082015250565b7f73656e646572206973206e6f742063726561746f720000000000000000000000600082015250565b7f5265656e7472616e637947756172643a207265656e7472616e742063616c6c00600082015250565b6114ec816112ac565b81146114f757600080fd5b5056fea2646970667358221220d265cd32ed70d902afefa7cdab74a4a6db2a9966ca0d36ffbca4a4bb20db8cdf64736f6c63430008040033",
  "linkReferences": {},
  "deployedLinkReferences": {}
}