{
  "_format": "hh-sol-artifact-1",
  "contractName": "TodoList",
  "sourceName": "contracts/TodoList.sol",
  "abi": [
    {
      "inputs": [],
      "stateMutability": "nonpayable",
      "type": "constructor"
    },
    {
      "anonymous": false,
      "inputs": [],
      "name": "TodoCompleted",
      "type": "event"
    },
    {
      "anonymous": false,
      "inputs": [
        {
          "indexed": false,
          "internalType": "uint256",
          "name": "todoId",
          "type": "uint256"
        }
      ],
      "name": "TodoCreated",
      "type": "event"
    },
    {
      "anonymous": false,
      "inputs": [],
      "name": "TodoExpired",
      "type": "event"
    },
    {
      "inputs": [
        {
          "internalType": "uint256",
          "name": "todoId",
          "type": "uint256"
        }
      ],
      "name": "completeTodo",
      "outputs": [],
      "stateMutability": "payable",
      "type": "function"
    },
    {
      "inputs": [
        {
          "internalType": "string",
          "name": "title",
          "type": "string"
        }
      ],
      "name": "createTodo",
      "outputs": [],
      "stateMutability": "payable",
      "type": "function"
    },
    {
      "inputs": [
        {
          "internalType": "uint256",
          "name": "id",
          "type": "uint256"
        }
      ],
      "name": "fetchTodo",
      "outputs": [
        {
          "components": [
            {
              "internalType": "uint256",
              "name": "todoId",
              "type": "uint256"
            },
            {
              "internalType": "string",
              "name": "title",
              "type": "string"
            },
            {
              "internalType": "bool",
              "name": "finished",
              "type": "bool"
            },
            {
              "internalType": "address payable",
              "name": "creator",
              "type": "address"
            },
            {
              "internalType": "uint256",
              "name": "amount",
              "type": "uint256"
            }
          ],
          "internalType": "struct TodoList.TodoItem",
          "name": "",
          "type": "tuple"
        }
      ],
      "stateMutability": "view",
      "type": "function"
    },
    {
      "inputs": [],
      "name": "fetchUnfinishedTodos",
      "outputs": [
        {
          "components": [
            {
              "internalType": "uint256",
              "name": "todoId",
              "type": "uint256"
            },
            {
              "internalType": "string",
              "name": "title",
              "type": "string"
            },
            {
              "internalType": "bool",
              "name": "finished",
              "type": "bool"
            },
            {
              "internalType": "address payable",
              "name": "creator",
              "type": "address"
            },
            {
              "internalType": "uint256",
              "name": "amount",
              "type": "uint256"
            }
          ],
          "internalType": "struct TodoList.TodoItem[]",
          "name": "",
          "type": "tuple[]"
        }
      ],
      "stateMutability": "view",
      "type": "function"
    },
    {
      "inputs": [
        {
          "internalType": "uint256",
          "name": "id",
          "type": "uint256"
        }
      ],
      "name": "findTodo",
      "outputs": [
        {
          "components": [
            {
              "internalType": "uint256",
              "name": "todoId",
              "type": "uint256"
            },
            {
              "internalType": "string",
              "name": "title",
              "type": "string"
            },
            {
              "internalType": "bool",
              "name": "finished",
              "type": "bool"
            },
            {
              "internalType": "address payable",
              "name": "creator",
              "type": "address"
            },
            {
              "internalType": "uint256",
              "name": "amount",
              "type": "uint256"
            }
          ],
          "internalType": "struct TodoList.TodoItem",
          "name": "",
          "type": "tuple"
        }
      ],
      "stateMutability": "view",
      "type": "function"
    }
  ],
  "bytecode": "0x608060405234801561001057600080fd5b50600160008190555033600360006101000a81548173ffffffffffffffffffffffffffffffffffffffff021916908373ffffffffffffffffffffffffffffffffffffffff1602179055506116c2806100696000396000f3fe60806040526004361061004a5760003560e01c806320fe21441461004f5780634a78950f1461006b578063d05b682c146100a8578063de941a54146100e5578063e34f122114610110575b600080fd5b61006960048036038101906100649190610f4a565b61012c565b005b34801561007757600080fd5b50610092600480360381019061008d9190610f4a565b61039a565b60405161009f91906112b1565b60405180910390f35b3480156100b457600080fd5b506100cf60048036038101906100ca9190610f4a565b6104e4565b6040516100dc91906112b1565b60405180910390f35b3480156100f157600080fd5b506100fa61062e565b60405161010791906111ff565b60405180910390f35b61012a60048036038101906101259190610f09565b610ae3565b005b60006101386001610cb9565b905060005b818111610395578260046000838152602001908152602001600020600001541415610382576004600082815260200190815260200160002060020160019054906101000a900473ffffffffffffffffffffffffffffffffffffffff1673ffffffffffffffffffffffffffffffffffffffff163373ffffffffffffffffffffffffffffffffffffffff1614610206576040517f08c379a00000000000000000000000000000000000000000000000000000000081526004016101fd90611271565b60405180910390fd5b600015156004600083815260200190815260200160002060020160009054906101000a900460ff16151514610270576040517f08c379a000000000000000000000000000000000000000000000000000000000815260040161026790611251565b60405180910390fd5b60016004600083815260200190815260200160002060020160006101000a81548160ff0219169083151502179055503373ffffffffffffffffffffffffffffffffffffffff166108fc60046000848152602001908152602001600020600301549081150290604051600060405180830381858888f193505050501580156102fb573d6000803e3d6000fd5b506103516040518060400160405280600e81526020017f256920616d6f756e742073656e740000000000000000000000000000000000008152506004600084815260200190815260200160002060030154610cc7565b7f11504f6ba54ece9e7c2dbdeb1667ac0a15b89348a89611bf5a64c38a869ee7c860405160405180910390a1610395565b808061038d906114ed565b91505061013d565b505050565b6103a2610da2565b6000600460008481526020019081526020016000206040518060a0016040529081600082015481526020016001820180546103dc9061148a565b80601f01602080910402602001604051908101604052809291908181526020018280546104089061148a565b80156104555780601f1061042a57610100808354040283529160200191610455565b820191906000526020600020905b81548152906001019060200180831161043857829003601f168201915b505050505081526020016002820160009054906101000a900460ff161515151581526020016002820160019054906101000a900473ffffffffffffffffffffffffffffffffffffffff1673ffffffffffffffffffffffffffffffffffffffff1673ffffffffffffffffffffffffffffffffffffffff168152602001600382015481525050905080915050919050565b6104ec610da2565b6000600460008481526020019081526020016000206040518060a0016040529081600082015481526020016001820180546105269061148a565b80601f01602080910402602001604051908101604052809291908181526020018280546105529061148a565b801561059f5780601f106105745761010080835404028352916020019161059f565b820191906000526020600020905b81548152906001019060200180831161058257829003601f168201915b505050505081526020016002820160009054906101000a900460ff161515151581526020016002820160019054906101000a900473ffffffffffffffffffffffffffffffffffffffff1673ffffffffffffffffffffffffffffffffffffffff1673ffffffffffffffffffffffffffffffffffffffff168152602001600382015481525050905080915050919050565b6060600061063c6001610cb9565b905060008060005b83811161070b573373ffffffffffffffffffffffffffffffffffffffff166004600083815260200190815260200160002060020160019054906101000a900473ffffffffffffffffffffffffffffffffffffffff1673ffffffffffffffffffffffffffffffffffffffff161480156106e35750600015156004600083815260200190815260200160002060020160009054906101000a900460ff161515145b156106f8576001836106f591906113aa565b92505b8080610703906114ed565b915050610644565b5060008267ffffffffffffffff81111561074e577f4e487b7100000000000000000000000000000000000000000000000000000000600052604160045260246000fd5b60405190808252806020026020018201604052801561078757816020015b610774610da2565b81526020019060019003908161076c5790505b50905060005b848111610ad8576000600460008381526020019081526020016000206040518060a0016040529081600082015481526020016001820180546107ce9061148a565b80601f01602080910402602001604051908101604052809291908181526020018280546107fa9061148a565b80156108475780601f1061081c57610100808354040283529160200191610847565b820191906000526020600020905b81548152906001019060200180831161082a57829003601f168201915b505050505081526020016002820160009054906101000a900460ff161515151581526020016002820160019054906101000a900473ffffffffffffffffffffffffffffffffffffffff1673ffffffffffffffffffffffffffffffffffffffff1673ffffffffffffffffffffffffffffffffffffffff16815260200160038201548152505090503373ffffffffffffffffffffffffffffffffffffffff16816060015173ffffffffffffffffffffffffffffffffffffffff1614801561091457506000151581604001511515145b15610ac4576000600460008481526020019081526020016000206000015490506000600460008381526020019081526020016000206040518060a00160405290816000820154815260200160018201805461096e9061148a565b80601f016020809104026020016040519081016040528092919081815260200182805461099a9061148a565b80156109e75780601f106109bc576101008083540402835291602001916109e7565b820191906000526020600020905b8154815290600101906020018083116109ca57829003601f168201915b505050505081526020016002820160009054906101000a900460ff161515151581526020016002820160019054906101000a900473ffffffffffffffffffffffffffffffffffffffff1673ffffffffffffffffffffffffffffffffffffffff1673ffffffffffffffffffffffffffffffffffffffff168152602001600382015481525050905080858781518110610aa7577f4e487b7100000000000000000000000000000000000000000000000000000000600052603260045260246000fd5b6020026020010181905250600186610abf91906113aa565b955050505b508080610ad0906114ed565b91505061078d565b508094505050505090565b60026000541415610b29576040517f08c379a0000000000000000000000000000000000000000000000000000000008152600401610b2090611291565b60405180910390fd5b60026000819055506000610b3d6001610cb9565b90506040518060a001604052808281526020018381526020016000151581526020013373ffffffffffffffffffffffffffffffffffffffff1681526020013481525060046000838152602001908152602001600020600082015181600001556020820151816001019080519060200190610bb8929190610de9565b5060408201518160020160006101000a81548160ff02191690831515021790555060608201518160020160016101000a81548173ffffffffffffffffffffffffffffffffffffffff021916908373ffffffffffffffffffffffffffffffffffffffff16021790555060808201518160030155905050610c6c6040518060400160405280600a81526020017f6974656d2069642025730000000000000000000000000000000000000000000081525082610cc7565b610c766001610d63565b7f969587c10fd1c8e896dbd62c20606e6b46069c3bb75f2a19faed07bf2f93686881604051610ca591906112d3565b60405180910390a150600160008190555050565b600081600001549050919050565b610d5f8282604051602401610cdd929190611221565b6040516020818303038152906040527f9710a9d0000000000000000000000000000000000000000000000000000000007bffffffffffffffffffffffffffffffffffffffffffffffffffffffff19166020820180517bffffffffffffffffffffffffffffffffffffffffffffffffffffffff8381831617835250505050610d79565b5050565b6001816000016000828254019250508190555050565b60008151905060006a636f6e736f6c652e6c6f679050602083016000808483855afa5050505050565b6040518060a001604052806000815260200160608152602001600015158152602001600073ffffffffffffffffffffffffffffffffffffffff168152602001600081525090565b828054610df59061148a565b90600052602060002090601f016020900481019282610e175760008555610e5e565b82601f10610e3057805160ff1916838001178555610e5e565b82800160010185558215610e5e579182015b82811115610e5d578251825591602001919060010190610e42565b5b509050610e6b9190610e6f565b5090565b5b80821115610e88576000816000905550600101610e70565b5090565b6000610e9f610e9a84611313565b6112ee565b905082815260208101848484011115610eb757600080fd5b610ec2848285611448565b509392505050565b600082601f830112610edb57600080fd5b8135610eeb848260208601610e8c565b91505092915050565b600081359050610f0381611675565b92915050565b600060208284031215610f1b57600080fd5b600082013567ffffffffffffffff811115610f3557600080fd5b610f4184828501610eca565b91505092915050565b600060208284031215610f5c57600080fd5b6000610f6a84828501610ef4565b91505092915050565b6000610f7f83836110f5565b905092915050565b610f9081611400565b82525050565b6000610fa182611354565b610fab8185611377565b935083602082028501610fbd85611344565b8060005b85811015610ff95784840389528151610fda8582610f73565b9450610fe58361136a565b925060208a01995050600181019050610fc1565b50829750879550505050505092915050565b61101481611412565b82525050565b60006110258261135f565b61102f8185611388565b935061103f818560208601611457565b611048816115c3565b840191505092915050565b600061105e8261135f565b6110688185611399565b9350611078818560208601611457565b611081816115c3565b840191505092915050565b6000611099602183611399565b91506110a4826115d4565b604082019050919050565b60006110bc601583611399565b91506110c782611623565b602082019050919050565b60006110df601f83611399565b91506110ea8261164c565b602082019050919050565b600060a08301600083015161110d60008601826111e1565b5060208301518482036020860152611125828261101a565b915050604083015161113a604086018261100b565b50606083015161114d6060860182610f87565b50608083015161116060808601826111e1565b508091505092915050565b600060a08301600083015161118360008601826111e1565b506020830151848203602086015261119b828261101a565b91505060408301516111b0604086018261100b565b5060608301516111c36060860182610f87565b5060808301516111d660808601826111e1565b508091505092915050565b6111ea8161143e565b82525050565b6111f98161143e565b82525050565b600060208201905081810360008301526112198184610f96565b905092915050565b6000604082019050818103600083015261123b8185611053565b905061124a60208301846111f0565b9392505050565b6000602082019050818103600083015261126a8161108c565b9050919050565b6000602082019050818103600083015261128a816110af565b9050919050565b600060208201905081810360008301526112aa816110d2565b9050919050565b600060208201905081810360008301526112cb818461116b565b905092915050565b60006020820190506112e860008301846111f0565b92915050565b60006112f8611309565b905061130482826114bc565b919050565b6000604051905090565b600067ffffffffffffffff82111561132e5761132d611594565b5b611337826115c3565b9050602081019050919050565b6000819050602082019050919050565b600081519050919050565b600081519050919050565b6000602082019050919050565b600082825260208201905092915050565b600082825260208201905092915050565b600082825260208201905092915050565b60006113b58261143e565b91506113c08361143e565b9250827fffffffffffffffffffffffffffffffffffffffffffffffffffffffffffffffff038211156113f5576113f4611536565b5b828201905092915050565b600061140b8261141e565b9050919050565b60008115159050919050565b600073ffffffffffffffffffffffffffffffffffffffff82169050919050565b6000819050919050565b82818337600083830152505050565b60005b8381101561147557808201518184015260208101905061145a565b83811115611484576000848401525b50505050565b600060028204905060018216806114a257607f821691505b602082108114156114b6576114b5611565565b5b50919050565b6114c5826115c3565b810181811067ffffffffffffffff821117156114e4576114e3611594565b5b80604052505050565b60006114f88261143e565b91507fffffffffffffffffffffffffffffffffffffffffffffffffffffffffffffffff82141561152b5761152a611536565b5b600182019050919050565b7f4e487b7100000000000000000000000000000000000000000000000000000000600052601160045260246000fd5b7f4e487b7100000000000000000000000000000000000000000000000000000000600052602260045260246000fd5b7f4e487b7100000000000000000000000000000000000000000000000000000000600052604160045260246000fd5b6000601f19601f8301169050919050565b7f746f646f20697320616c7265616479206d61726b65642061732066696e73686560008201527f6400000000000000000000000000000000000000000000000000000000000000602082015250565b7f73656e646572206973206e6f742063726561746f720000000000000000000000600082015250565b7f5265656e7472616e637947756172643a207265656e7472616e742063616c6c00600082015250565b61167e8161143e565b811461168957600080fd5b5056fea2646970667358221220c7bbd6a2789b2285d3c5be52f6be2dc3098d7a4b32cab09b1effbe50b85164c964736f6c63430008040033",
  "linkReferences": {},
  "deployedLinkReferences": {}
}